:020000040000FA
:060000000A128A11EE2F26
:100C9600700C83120313031C8813031888170800AB
:100CA600700C83120313031C08130318081708009B
:100CB600700C83120313031C88120318881608008D
:100CC6008316031388150815831203138811081158
:100CD60008007008203E8400831300088312031363
:100CE60086000800831603178901831603138601FD
:100CF6008312031386010800831603138812081350
:100D060088138312031388120813881308008312AA
:100D16000313080EF200720C0139F300F401730894
:100D2600F0007408F100972E080083120313080CD4
:100D3600F200720C0139F300F4017308F000740834
:100D4600F100A52E080083120313080CF200F20C22
:100D5600720C0139F300F4017308F0007408F10015
:100D6600B42E08003F3406345B344F3466346D3499
:100D76007D3407347F346F3477347C3439345E34D1
:100D8600793471347E088A007F0882000A128A113B
:100D9600C5260A128A118000840A04087D060319F2
:100DA6000034FF0A0319FE0AC92EE72EC730F200E7
:100DB600DC2EF20BDB2EDF2EE02E0130F0020030AF
:100DC600031CF103F102E72E70087104031DEC2EDB
:100DD600ED2ED92EEE2E0800F501F601F701F801E9
:100DE6000A128A117F260A128A110A128A116326AA
:100DF6000A128A110A128A1175260A128A11CA2F34
:100E0600CA2F0130F7000030F800CA2F0A128A11E3
:100E1600A6260A128A1170037104031D132F142FBC
:100E2600192F0230F7000030F800192F0A128A1124
:100E360098260A128A1170037104031D232F242F8A
:100E4600CA2F0730F7000030F800CA2FCA2F01302A
:100E5600F0000030F1000A128A114B260A128A119C
:100E66000130F0000030F1000A128A1153260A12EE
:100E76008A110330F7000030F800CA2FB830F000AE
:100E86000B30F1000A128A11D8260A128A11043090
:100E9600F7000030F800CA2F0030F000F1000A1207
:100EA6008A1153260A128A110130F0000030F1002F
:100EB6000A128A114B260A128A110530F7000030F1
:100EC600F800CA2F0130F0000030F1000A128A1132
:100ED6004B260A128A110130F0000030F1000A1286
:100EE6008A115B260A128A110630F7000030F800D4
:100EF6007C2F0A128A118A260A128A11700371043B
:100F0600031D862F872F8E2F0130F5070318F60A4B
:100F16000030F6078E2F7608F1007508F0000A12E9
:100F26008A116C260A128A117608803AFF008030F0
:100F36007F02031DA02F09307502031CA32FA42FC7
:100F4600A72FF501F601A72F0130F7000030F800B2
:100F5600CA2F0030F000F1000A128A114B260A123D
:100F66008A110030F000F1000A128A1153260A1283
:100F76008A110030F000F1000A128A115B260A126B
:100F86008A110130F7000030F800CA2FCA2F7808FE
:100F9600003A0319CF2FCA2F7708003A0319042FF6
:100FA600013A0319092F033A03192A2F013A0319A3
:100FB600412F073A03194F2F013A0319652F033AB8
:100FC60003197C2F013A0319AC2FCA2FCA2FCA2F37
:100FD6000A128A11002883133030FD000630FE0005
:100FE600B530FF00203084000A128A11C9260A1281
:0A0FF6008A1183010A128A11EF2EFE
:04400E00D4E0FFFFFC
:00000001FF
